:020000040800F2
:10000000F817002075020008CF2000082F1F0008F5
:10001000CD200008030B0008D524000800000000D4
:10002000000000000000000000000000DD010008EA
:10003000050B0008000000002102000869210008EB
:100040008F0200088F0200088F0200088F0200084C
:100050008F0200088F0200088F0200088F0200083C
:100060008F0200088F0200088F0200088F0200082C
:100070008F0200088F0200088F0200088F0200081C
:100080008F0200088F0200088F0200088F0200080C
:100090008F0200088F0200088F0200088F020008FC
:1000A0008F020008112200088F0200088F0200084A
:1000B0008F0200088F0200088F0200088F020008DC
:1000C0008F0200088F0200088F0200088F020008CC
:1000D0008F0200088F0200088F020008C924000860
:1000E0008F0200088F0200088F0200088F020008AC
:1000F0008F0200088F0200088F0200088F0200089C
:100100008F0200088F0200088F0200088F0200088B
:100110008F0200088F0200088F0200088F0200087B
:100120008F0200088F0200088F0200088F0200086B
:1001300000F002F800F043F80AA090E8000C8244B6
:100140008344AAF10107DA4501D100F038F8AFF293
:10015000090EBAE80F0013F0010F18BFFB1A43F0A5
:1001600001031847B8320000D8320000103A24BF0B
:1001700078C878C1FAD8520724BF30C830C144BF0C
:1001800004680C607047000000230024002500264E
:10019000103A28BF78C1FBD8520728BF30C148BFEA
:1001A0000B6070471FB500F035FA040000200021F5
:1001B00003F0F4F8401C60601FBD10B510BD00F0E6
:1001C000F5FB1146FFF7EEFF02F095F900F01CFC7D
:1001D00003B4FFF7F2FF03BC00F060FC224B196888
:1001E0000868B0E8F00F80F30988BFF36F8F4FF015
:1001F000000080F311884EF00D0E704700000000E3
:1002000006480068006880F3088862B661B6BFF3EC
:100210004F8FBFF36F8F00DF00BF00BF08ED00E01E
:10022000EFF30980BFF36F8F0F4B1A6820E9F00FCF
:10023000106008B54FF0500080F31188BFF34F8F66
:10024000BFF36F8F02F08AFD4FF0000080F311883A
:10025000BDE8084019680868B0E8F00F80F3098825
:10026000BFF36F8F704700BF14000020EFF30580CD
:10027000704700000948804709480047FEE7FEE74D
:10028000FEE7FEE7FEE7FEE7FEE7FEE7FEE7FEE746
:1002900004480549054A064B704700000F22000834
:1002A00031010008F8110020F8170020F813002091
:1002B000F81300200FB400B58DB010A9099000917B
:1002C0000B904FF0FF300A9000200C9006487844C5
:1002D0000690064878446A4607900F9909A800F0EE
:1002E00069F90DB05DF814FB030300001B03000067
:1002F0002DE9FF5F4FF00008994614464646916984
:10030000D2E901A7DDF838B001988847054659EAD7
:100310000B0005D009E0A1690198761C88470546C5
:10032000216A284688470028F5D1681C03D05FEA77
:10033000CA7005D015E04FF0FF3004B0BDE8F09F63
:100340002068011D2160D0F800800AE05FEACA70D1
:1003500001D108F8015BA169761C01987F1E8847CE
:100360000546002F1ADD681C18D0B9F1000F0DD01A
:10037000E81705EBD060421120F01F0059F8221059
:100380002A1A012090400142E0D107E0BBF1000FA2
:10039000DCD12846216A88470028D7D0E169019836
:1003A0008847BBF1000F07D1002E05DD5FEACA7058
:1003B00002D1002188F80010A068B84203DDBBF12B
:1003C000000F03D017B16FF00100B6E73046B4E775
:1003D00040EA010370B59B072ED14FF00136042A85
:1003E0002AD308C810C99D1B9D43121F15EAC615C4
:1003F00017D0D8B2E1B2401A50EA056110D198B2D4
:10040000A1B2401A50EA05410AD123F07F4024F0FE
:100410007F41401A50EA052102D1180EA0EB14606A
:1004200070BDA342DBD018BA21BA884201D901209D
:1004300070BD4FF0FF3070BD0AB9002070BD10F8DC
:10044000013B11F8014B63B1A3420AD1521E08D0FF
:1004500010F8013B11F8014B1BB1A34201D1521E10
:10046000EDD1181B70BD032A40F2308010F0030C50
:1004700000F0158011F8013BBCF1020F624498BFF7
:1004800011F801CB00F8013B38BF11F8013BA2F194
:10049000040298BF00F801CB38BF00F8013B11F00F
:1004A000030300F02580083AC0F0088051F8043BAF
:1004B000083A51F804CBA0E80810F5E7121D5CBF1C
:1004C00051F8043B40F8043BAFF30080D20724BF4F
:1004D00011F8013B11F801CB48BF11F8012B24BFE3
:1004E00000F8013B00F801CB48BF00F8012B704732
:1004F00010B5203AC0F00B80B1E81850203AA0E8BF
:100500001850B1E81850A0E81850BFF4F5AF5FEAF2
:10051000027C24BFB1E81850A0E8185044BF18C9A5
:1005200018C0BDE810405FEA827C24BF51F8043B4C
:1005300040F8043B08BF7047D20728BF31F8023BA0
:1005400048BF11F8012B28BF20F8023B48BF00F834
:10055000012B70474FF0000200B5134694469646B3
:10056000203922BFA0E80C50A0E80C50B1F12001C6
:10057000BFF4F7AF090728BFA0E80C5048BF0CC074
:100580005DF804EB890028BF40F8042B08BF7047D2
:1005900048BF20F8022B11F0804F18BF00F8012B44
:1005A00070477047704770470268114413780160C4
:1005B00018467047D160054979445161044979442E
:1005C000116200211161114600F032B8EDFFFFFF0A
:1005D0005B000000426842B1016811F8013B23B1A1
:1005E000521EC0E90012184670470121C160881EE2
:1005F000704742685AB1C368016843B983688B4247
:1006000005D0491E521CC0E90012002070474FF06F
:10061000FF30704700487047B811002010B50446FD
:1006200000F0EAF90068005D00F0010010BD000074
:100630002DE9F34F4FF0000A0C4656468DB00120CD
:100640000C9001F10C000B9062690B98012190470E
:10065000051E2DD0252D2CD0216A8847C0B1626996
:100660000B9801219047216A88470028F7D16269D9
:10067000411E0B98904700E0761CA1690D988847B1
:10068000216A88470028F7D1E1690D988847DBE7A0
:10069000A1690D988847A842074601D1761CD3E787
:1006A000E1690D9888477F1C02D1BAF1000F6FD025
:1006B0006BE162690B9800273D46394690472A282E
:1006C00004D162690B98012190470125DFF8D0829F
:1006D00062690B9801219047A0F130010A290AD2E2
:1006E0004745E5DC07EB870100EB4107303FDFD4EE
:1006F00045F01005ECE7E90601D46FF000476C28DF
:100700000AD04C2814D0682815D06A280DD0742837
:100710001CD07A281AD01DE062690B9801219047FD
:100720006C2802D045F0040514E045F002050DE008
:1007300045F020050AE062690B980121904768287E
:1007400002D045F0080505E045F4006562690B98A4
:1007500001219047C4E9015765283DD019DC58288C
:100760007AD00CDC452837D004DC252826D0412857
:100770009ED131E046282FD0472899D12CE05B2824
:1007800077D0612828D063287CD0642823D15AE010
:10079000F6E06F2848D008DC66281DD067281BD0FB
:1007A000692821D06E2816D127E0702845D07328FB
:1007B00068D0752847D078280DD14DE0A1690D98F3
:1007C0008847252805463FF469AFE1690D988847B9
:1007D0006D1C3FF46AAFD8E00D9923466A466FF06E
:1007E0000100AFF30080C5E045F0400023464FF024
:1007F00000026060A80736D43EE0E8077FF447AF08
:100800002068011D21600068290501D506701BE7DD
:10081000290701D5068017E7A90703D5F117C0E915
:10082000006111E706600FE745F0400023464FF0F6
:1008300008026060A80716D41EE040F60E0125EA03
:100840000100606016E045F0400023464FF00A02C8
:100850006060A80707D40FE045F040006060A8077B
:1008600008D5234610220D996FF00100AFF30080E8
:1008700080E007E0102223460D996FF00100AFF3EE
:10088000008077E04FF0000963284F46C8464B468A
:10089000CB4602D05B2806D038E0E80601D4012020
:1008A000A060012732E06269D4F80CB00B980121F6
:1008B00090475E2807D14FF0010949466269D4F894
:1008C0000CB00B989047216939B900210A4603AB57
:1008D00043F82120491C0829FADBD8B3216949B320
:1008E00008F1010862690B98012190475D28F4D155
:1008F000B9F1000F09D0002003A951F82020D243FC
:1009000041F82020401C0828F7DB03AB20690028B1
:1009100020794FEA40701ED05B462246CDF8008019
:10092000CDE901970D9900286FF0010020DAAFF3AF
:1009300000801FE0C11703AA00EBD1614B1121F029
:100940001F0102EB8302411A136801208840034310
:100950001360C7E719E00D99224600286FF00100E7
:10096000009702DAAFF3008004E0FFF7C1FC01E07A
:10097000AFF3008000280ADA401C06D10C9820B1A1
:100980004FF0FF300FB0BDE8F08F5046FAE7E907AF
:1009900001D10AF1010A064400200C9054E600003F
:1009A000CCCCCC0C00487047981100207546FFF75E
:1009B000F9FFAE4605006946534620F0070085461C
:1009C00018B020B5FFF764FCBDE820404FF00006EA
:1009D0004FF000074FF000084FF0000B21F0070127
:1009E000AC46ACE8C009ACE8C009ACE8C009ACE86A
:1009F000C0098D467047000010B5FFF70BFE001DC3
:100A000010BD00BF9929000010B50446AFF3008067
:100A10002046BDE81040FFF7DBBB00004FF0013C73
:100A200050F8042B51F8043B9A4221D1A2EB0C035D
:100A3000934313EACC1317D150F8042B51F8043B1D
:100A40009A4215D1A2EB0C03934313EACC130BD1BA
:100A500050F8042B51F8043B9A4209D1A2EB0C0345
:100A6000934313EACC13DBD04FF00000704700BF74
:100A7000D01A01BAB1FA81F101F0180122FA01F09D
:100A8000CB40C1F12001DBB2C0B2C01A2CFA01F395
:100A9000D11A914311EAC311E6D1704701491820D8
:100AA000ABBEFEE7260002007047000070B50446AA
:100AB00000688168C943C90717D1816821F0010125
:100AC000816000F02BFB05460AE000BF00F026FB2A
:100AD000401B022804D920688068C043C00706D0A4
:100AE00020688068C043C007F0D0002070BDA06AB5
:100AF00040F01000A062E06A40F00100E0620120D6
:100B000070BDFEE7704772B6FEE70000F8B500243E
:100B1000009490F824202546012A12D0012280F862
:100B200024204A681F23072A0DD20668776B521EBD
:100B300002EB820293409F430B6893401F4377630D
:100B400019E00220F8BD06680D2A0AD2376BD21FC1
:100B500002EB820293409F430B6893401F4337632D
:100B600009E0F76A0D3A02EB820293409F430B685B
:100B700093401F43F7620A68072306680A2A0AD3CC
:100B8000F7680A3A02EB420293409F438B68934016
:100B90001F43F76008E0376902EB420293409F432E
:100BA0008B6893401F4337610A68102A01D0112ACD
:100BB00020D1124B02689A4217D193681B0219D4B4
:100BC000936843F4000393600968102912D10C491B
:100BD0000C4A0968B1FBF2F101EB8101490000E028
:100BE000491E00910029FBD104E0816A41F02001F7
:100BF0008162012480F824502046F8BD0024014081
:100C00001000002040420F002DE9F04104004FF099
:100C100000057FD0A06A002628B9E66284F8246027
:100C2000204600F081F82046FFF740FFA16AC90680
:100C300000D420B1A06A40F01000A0626AE0A16A6E
:100C400021F4885141F00201A162334923688B42AB
:100C5000E16904D1B1F5402F01D14FF40021277B88
:100C60004FF4807C41EA470261680A43A16861450C
:100C700008D0012906D0002194F814E0BEF1010F3C
:100C800002D00AE06146F7E7C7B1A76A47F020073C
:100C9000A762E76A47F00107E7625F6827F46947E0
:100CA0000F435F60236899681C4F39401143996076
:100CB000A16861450BD0012909D00CE0DFF860E0A4
:100CC000A7690EEB47370F4347F40061E5E7218A38
:100CD0000D05A5F580152168CB6A23F470032B431D
:100CE000CB62216889680F4B1940914208D1E662B6
:100CF000A16A21F0020141F00101A162BDE8F08189
:100D0000A06A20F0020040F01000A062E06A40F00B
:100D10000100E0620120F1E7003C0140FDF7E1FF46
:100D200000E0FFFFFE0E1FFF10B586B0002100910E
:100D300001910291039100681549884226D1154816
:100D4000816941F400718161816901F4007104914C
:100D5000816941F010018161816901F01001049104
:100D6000816941F0080181618069032400F0080075
:100D700004903020CDE900046946074800F0CCF823
:100D8000009469460548019400F0C6F806B010BD0D
:100D9000002401400010024000100140000C0140FE
:100DA00010B590F821100022022905D0042181639A
:100DB00080F82020012010BD01680B6823F00E038D
:100DC0000B6001680B6823F001030B6090F8403062
:100DD000C46B012101FA03F3636080F8211080F8ED
:100DE0002020104610BD00002DE9F05F90F8211082
:100DF0000024022903D004218163012485E00168D5
:100E00000A6822F00E020A6001680A6822F00102F4
:100E10000A603F4E3E4FB215DFF8F4C0DFF8F090A5
:100E2000DFF8ECA0DFF8E8B0DFF8E4E00168783F35
:100E300013011502ACF1640CA9F15009AAF13C0AA6
:100E4000ABF1280BAEF1140E4FF48018B14227D944
:100E5000B9420ED0614512D049451DD0514518D038
:100E6000594518D0714501D1424615E0294EB1428D
:100E700001D1012210E0274E1436B14201D11022D7
:100E80000AE0244E2836B14206D0224A3C32914232
:100E900001D11A4600E02A461E49091F0A602BE0CC
:100EA000B94213D0614517D0494522D051451DD0D4
:100EB00059451DD0714501D142461AE0B14202D1D7
:100EC0004FF0807215E0134EB14201D1012210E0C3
:100ED000104E1436B14201D110220AE00D4E2836D0
:100EE000B14206D00B4A3C32914201D11A4600E091
:100EF0002A46074980394A60012180F821100021E3
:100F000080F82010416B01B188472046BDE8F09F72
:100F100080000240080402402DE9F84FDFF8C89134
:100F20000024A9F1040B23460F2709F1040AABF1B1
:100F3000040ED1E00125A54006EA0502AA4276D1B9
:100F4000DFF8A8C14E68A6EB0C0866452BD00DDC77
:100F5000032E34D005DC36B3012E19D0022E2FD14A
:100F60001BE0112E16D0122E2AD119E0B8F5881FD9
:100F700019D006DCB8F5803F15D0B8F5801F1FD119
:100F800011E0B8F5001F0ED0B8F5041F18D10AE023
:100F9000CB6815E0CB681B1D12E0CB6808330FE06F
:100FA000CB680C330CE08B682BB1012B4FF008039E
:100FB00003D0456104E0042302E0056100E0002362
:100FC000FF2A01D8064601E000F104064FEA840535
:100FD00001D9A5F12005D6F8008007FA05FC28EA1A
:100FE0000C0803FA05F548EA0508C6F800804D68C4
:100FF000ED0070D53E4DAE6946F00106AE61AD69BB
:1010000024F0030605F0010500953A4D06EB050CAA
:10101000DCF80850A607360F07FA06F825EA080597
:10102000DFF8D480404503D14FF0000825E052E0BE
:10103000DFF8C880404502D14FF001081DE0DFF81D
:10104000C080404502D14FF0020816E0DFF8B480BE
:10105000404502D14FF003080FE0DFF8AC80404577
:1010600002D14FF0040808E0DFF8A080404502D12B
:101070004FF0050801E04FF0060808FA06F848EAC4
:101080000508CCF808804D68D9F80060ED024D469F
:1010900001D5164300E096432E604D68DAF80060F3
:1010A000AD02554601D5164300E096432E604D68CB
:1010B000DBF80060AD035D4601D5164300E09643C2
:1010C0002E604D68DEF80060ED03754601D51643CD
:1010D00000E096432E60641C0A681646E2407FF4E6
:1010E00029AFBDE8F88F000008040140000011108E
:1010F000001002400000014000080140000C0140C7
:10110000001001400014014000180140001C014083
:101110000AB1016170470904FBE7000001488068DB
:1011200070470000040000200248816802781144E2
:101130008160704704000020074810B5016841F045
:1011400010010160032000F0A1F80F2000F006F864
:1011500000F04AF8002010BD0020024030B50546DE
:101160001C4887B0816941F400618161806906A9EA
:1011700000F40060009001A800F0A6F900F0D4F996
:101180001549164AB0FBF1F11548491E026041604D
:1011900040F2E7320021C0E903218160816100F063
:1011A0008BFB040012D10E4800F0B4FB04000DD1FB
:1011B000192000F03DF8102D07D2002229461920F1
:1011C00000F044F80748056000E0012407B020461D
:1011D00030BD00000010024040420F00002C0140D2
:1011E000E0030020080000200F4808B5816941F0A5
:1011F00001018161816901F001010091C16941F042
:101200008051C161C069002200F0805000900F2120
:10121000901E00F01BF80548416821F0E06141F0A4
:101220000071416008BD0000001002400000014054
:10123000002809DB00F01F020121914040098000D5
:1012400000F1E020C0F8001170470000F0B40E4B30
:101250001B680C46C3F30223C3F10705042D00D914
:101260000425191D072901D2002300E0DB1E0126F9
:1012700006FA05F1491E214099409E40761E16400F
:101280003143F0BC01F027B90CED00E0064900F055
:10129000070208684FF6FF03184040EA0220034A9D
:1012A00010430860704700000CED00E00000FA05F4
:1012B0002DE9F84305460078354CC00754D0E06965
:1012C0000026C00008D4E06940F08050E061E06989
:1012D000012600F0805000902E480168C90512D404
:1012E0000168804641F480710160FFF717FF0746EF
:1012F00005E000BFFFF712FFC01B642823D8D8F811
:101300000000C005F6D5206A10F4407021D0A988ED
:1013100001F4407181421CD0206A1F49012220F44F
:1013200040700A6000220A602062C00711D0FFF7F7
:10133000F5FE074641F2883808E000BFFFF7EEFEF1
:10134000C11B414502D90320BDE8F883206A80070C
:10135000F4D5206A696820F44070084320621EB109
:10136000E06920F08050E0612878800705D560684A
:10137000A96820F44040084360602878C00605D57D
:101380006068696920F48000084360600020DBE742
:101390000010024000700040400442422DE9F04736
:1013A0000F46050061D0434E306800F00700B84298
:1013B00009D2306820F0070038433060306800F010
:1013C0000700B84251D128683B4C810712D540072D
:1013D00003D5606840F4E06060602878000703D5BA
:1013E000606840F4605060606068A96820F0F000B8
:1013F000084360602878C00728D06868012810D0AA
:101400002168022810D0890700292EDA616821F0AE
:10141000030101436160FFF781FE804641F2883994
:101420000DE021688903EFE78901EDE7FFF776FE1C
:10143000A0EB0801494502D90320BDE8F0876068A8
:10144000696800F00C00B0EB810FEFD1306800F05C
:101450000700B8420BD9306820F0070038433060ED
:10146000306800F00700B84201D00120E5E7287895
:10147000400705D56068E96820F4E06008436060D3
:101480002878000706D56068296920F4605040EA92
:10149000C100606000F058F86168084AC1F30311A8
:1014A000515CC8400649086006480068FFF756FED0
:1014B0000020C2E70020024000100240F63300087E
:1014C00010000020080000200F2202600C4A536820
:1014D00003F003034360536803F0F0038360536831
:1014E00003F4E063C36052684FF4E06303EAD2029E
:1014F00002610448006800F00700086070470000BF
:101500000010024000200240044805490068496874
:10151000044AC1F30221515CC8407047100000200A
:101520000010024006340008044805490068496874
:10153000044AC1F3C221515CC8407047100000202A
:1015400000100240063400080E4A51680E4801F0AF
:101550000C03042B11D0082B0FD10C48C1F383438B
:10156000C903C05C0AD55168084AC1F34041921EC4
:10157000515C054A5043B0FBF1F0704704494843C1
:10158000704700000010024000127A00E6330008A5
:1015900000093D002DE9F84F040070D02078C04DBF
:1015A000C00749D06868C0F38100012807D0686887
:1015B000C0F38100022809D16868C00306D52868F5
:1015C000800339D560680028E7D035E06068B0F561
:1015D000803F0BD010B1B0F5A02F11D0286820F4B7
:1015E00080302860286820F4802002E0286840F4D9
:1015F00080302860606890B1FFF790FD06460AE0F1
:10160000286840F480202860F0E700BFFFF786FDDF
:10161000801B642873D828688003F7D50CE0FFF797
:101620007DFD064605E000BFFFF778FD801B6428BE
:10163000F0D828688003F7D420789A4E80074FF0BE
:1016400001094FF0000839D5686810F00C0F07D079
:101650006868C0F38100022809D16868C00306D415
:101660002868800714D52069012808D110E0206976
:10167000B0B1C6F80090FFF751FD074605E00AE15A
:10168000FFF74CFDC01B0228C4D828688007F7D597
:101690002868616920F0F80040EAC10028600DE088
:1016A000C6F80080FFF73AFD074604E0FFF736FD75
:1016B000C01B022823D828688007F7D420780007A9
:1016C0002CD57948A169D9B1C0F80090FFF726FD63
:1016D000074604E0FFF722FDC01B02280FD8686A06
:1016E0008007F7D571484FF4FA510068B0FBF1F06C
:1016F000009000BF0098411E0091FAD20EE080E0F9
:10170000C0F80080FFF70AFD074604E0FFF706FD7A
:10171000C01B022875D8686A8007F7D42078400774
:1017200060D5E8690027C00008D4E86940F080501F
:10173000E861E869012700F0805000905C4801688A
:10174000C90513D40168834641F480710160FFF735
:10175000E5FC824606E000BFFFF7E0FCA0EB0A00D4
:1017600064284ED8DBF80000C005F5D5E0680128F4
:101770000AD008B1052813D0286A20F00100286299
:10178000286A20F0040002E0286A40F00100286284
:10179000E06841F2883B98B1FFF7C0FC82460BE05D
:1017A000286A40F004002862EEE700BFFFF7B6FCAD
:1017B000A0EB0A0159455AD8286A8007F6D50CE0F3
:1017C000FFF7ACFC824605E0FFF7A8FCA0EB0A019E
:1017D00059454CD8286A8007F6D41FB1E86920F033
:1017E0008050E861E06988B36968C1F3810102292A
:1017F00044D00228C6F8608004D0FFF78FFC04466E
:1018000038E034E0FFF78AFC074604E0FFF786FC87
:10181000C01B02282BD828688001F7D4206AB0F5B5
:10182000803F05D16868A16820F4003008436860F3
:10183000D4E908010843696821F474110843686019
:10184000C6F86090FFF76AFC044606E025E000BF9A
:10185000FFF764FC001B022809D828688001F7D52F
:101860001BE000BFFFF75AFC001B022802D903202F
:10187000BDE8F88F28688001F4D40EE00128F7D085
:101880006868226A00F48031914204D1616A00F4F0
:101890007010884201D00120EAE70020E8E700004C
:1018A000001002400000424280044242100000202A
:1018B000007000407047704710B5040003D094F8E2
:1018C0003D0010B107E0012010BD002084F83C006D
:1018D000204600F01EF8022084F83D00211D2068FB
:1018E00000F09CFC012084F8460084F83E0084F857
:1018F0003F0084F8400084F8410084F8420084F8F6
:10190000430084F8440084F8450084F83D0000203A
:1019100010BD704790F83D10012901D0012070479B
:10192000022180F83D100168CA6842F00102CA60D5
:1019300000680E4988420ED00D4988420BD0B0F1A4
:10194000804F08D00B49884205D00B49884202D00D
:101950000A49884204D1816801F00701062903D0B1
:10196000016841F00101016000207047002C014036
:10197000003401400004004000080040000C00401A
:1019800070472DE9F04104460068C66805694FF0CC
:101990000007A90713D5B10711D5F91E0161012070
:1019A0002077206880698007204602D0FFF7E8FF93
:1019B00004E000F07EF8204600F07CF82777680706
:1019C00016D5700714D521686FF004000861022055
:1019D00020772068806910F4407F204602D0FFF70E
:1019E000CFFF04E000F065F8204600F063F82777A9
:1019F000280715D5300713D521686FF00800086156
:101A0000042020772068C0698007204602D0FFF7B5
:101A1000B7FF04E000F04DF8204600F04BF82777C0
:101A2000E80616D5F00614D521686FF0100008619D
:101A3000082020772068C06910F4407F204602D03B
:101A4000FFF79EFF04E000F034F8204600F032F883
:101A50002777E80708D0F00706D021686FF001006B
:101A60000861204600F028F8280608D5300606D57B
:101A700021686FF0800008612046FFF71BFF6806B1
:101A800008D5700606D521686FF040000861204631
:101A900000F01CF8A8060AD5B00608D521686FF03A
:101AA000200008612046BDE8F041FFF704BFBDE813
:101AB000F08170477047000000680349884201D1F7
:101AC000FFF732BB70470000002C014070477047A1
:101AD00070470000F8B5016804460868CA684B6999
:101AE00010F00F0F4FF0000559D003F0010602F47B
:101AF0009077374365D0C10705D0D10503D5616C18
:101B000041F001016164410705D5D90703D0616C3B
:101B100041F002016164810705D5D90703D0616CEA
:101B200041F004016164010707D502F0200131434F
:101B300003D0616C41F008016164616C00293AD006
:101B4000800604D5900602D5204600F0E4FB20680C
:101B50004069616CC0F38010090700D460B320466F
:101B600000F0B2FB20684069400621D5206814309F
:101B700050E8001F21F0400140E80012002AF5D192
:101B8000E06BA8B16D494163E06BFFF72DF90028C8
:101B900011D0E06B416B01B0BDE8F040084783060F
:101BA0000FD593060DD52046BDE8F84000F0B3BB35
:101BB0002046FFF78DFFF8BD2046FFF789FF6564DB
:101BC000F8BD266B2023012E7CD1C6067AD5D60619
:101BD00078D508684868009048694FF002064006CA
:101BE00040D5E16B086840680004000CE8D0A28D85
:101BF0008242E5D9E085886920282DD020680C3004
:101C000050E8001F21F4807140E80012002AF5D14D
:101C10002068143050E8001F21F0010140E8001254
:101C2000002AF5D12068143050E8001F21F040014F
:101C300040E80012002AF5D184F84230256320687C
:101C40000C3050E8001F21F0100140E80012002A7B
:101C5000F5D1E06BFFF7A4F86663A08DE18D401A23
:101C600081B22AE0A08DE18D401A81B2E08D00287A
:101C7000A6D00029A4D022680C3252E8000F20F42C
:101C8000907042E80007002FF5D12068143050E82A
:101C9000002F22F0010240E80027002FF5D184F840
:101CA0004230256320680C3050E8002F22F01002EB
:101CB00040E80023002BF5D166632046FFF707FFBD
:101CC000F8BDFFE705062BD5150629D594F8410088
:101CD0002128F5D1A068B0F5805F01D12069B0B1AD
:101CE000206A411C2162216800784860E08C401E17
:101CF0000004000CE084E3D12068C16821F0800179
:101D0000C1602068C16841F04001C160D8E7206A25
:101D10000088C0F308004860206A801C2062E5E764
:101D20004006CDD55006CBD5CA68204622F04002E9
:101D3000CA6084F8413000F0F9F8C1E7B922000820
:101D400070B5040004D094F84100002510B106E0FD
:101D5000012070BD84F84050204600F023F8242074
:101D600084F841002068C16821F40051C160204618
:101D700000F032FB2068016921F490410161206884
:101D8000416921F02A0141612068C16841F4005194
:101D9000C1606564202084F8410084F842006563D6
:101DA000002070BDF0B585B0002400940194029429
:101DB000039403683B483A4F051502210322C614D9
:101DC000BB421DD1C36943F40023C361C36903F45B
:101DD00000230493836943F0100383618069CDE994
:101DE000005100F01000CDE903202F4D6946284630
:101DF000FFF792F8CDE9006469462846029420E096
:101E00002A4FBB4221D1836943F4804383618369B4
:101E100003F480430493836943F00403836180697E
:101E2000234E00F0040004907815CDE900010392E0
:101E300069463046FFF770F8CDE9005469463046F0
:101E40000294FFF769F805B0F0BD1A4FBB42FAD112
:101E5000C36943F48023C361C36903F480230493FB
:101E6000836943F0080383618069CDE9005100F084
:101E70000800CDE90320104D69462846FFF74CF8CD
:101E8000CDE90064694628460294FFF745F8002230
:101E900005212720FFF7DAF92720FFF7C9F9D2E754
:101EA000004C00400010024000100140003801408A
:101EB0000008014000480040000C014090F842300A
:101EC000202B01D00220704721B11AB100230363F7
:101ED00000F0DEBA0120704770B500680F498842F3
:101EE0001BD10F4D002428466A780E4900780A2A33
:101EF0000ED00A54401CC0B22870802800D32C7029
:101F0000BDE8704006490122491C0748FFF7D6BFCB
:101F10000C54044800F0DCF8F1E770BD00380140D3
:101F20007C00002018110020500300207047FEE7BD
:101F30003EB5002411480094019402940E49846037
:101F4000016001250573047505614FF4602144604B
:101F5000C161FEF759FE08B1FEF7D5FD0820CDE9B5
:101F60000005694602940548FEF7D0FD002801D01F
:101F7000FEF7C9FD3EBD000000240140D80200204C
:101F800000B587B01C2206496846FEF7B1FA002169
:101F9000684600F0D5FA0349086007B000BD0000AC
:101FA000C83300080000002030B585B000241B486D
:101FB0000094019402940394816941F010018161BD
:101FC000816901F010010491816941F0080181618A
:101FD000816901F008010491816941F00401816186
:101FE000816901F004010491816941F0200181615E
:101FF00080690B4D00F0200004900022012128464A
:10200000FFF786F80220012103900091CDE9011429
:1020100069462846FEF780FF05B030BD001002403B
:10202000001401400C4810B50A4901604FF4E13139
:102030004160002181600C22C160C0E9041281610D
:10204000C161FFF77DFE002803D0BDE81040FEF718
:102050005ABD10BD004C0040080300200C4810B5CC
:102060000A4901604FF4E1314160002181600C2296
:10207000C160C0E904128161C161FFF761FE0028FF
:1020800003D0BDE81040FEF73EBD10BD0038014052
:10209000500300200C4810B50A4901604FF4E131AB
:1020A0004160002181600C22C160C0E9041281619D
:1020B000C161FFF745FE002803D0BDE81040FEF7E0
:1020C00022BD10BD0048004098030020FEE7FEE757
:1020D00030B591B00546052214A1FEF779F9154CEB
:1020E000C8B1042214A12846FEF772F990B1052266
:1020F00013A12846FEF76CF9002814D102208DF8B0
:10210000000011A128460DF101020DF12103FEF797
:10211000D1F802E001208DF8000000231A4669463C
:10212000606800F09DFE11B030BD00005354415274
:10213000540000007C00002053544F500000000069
:10214000574946493A000000574946493A535349CE
:10215000443D255B5E2C5D2C504153533D2573005F
:10216000012000F0E1F9FBE710B5502080F3118861
:10217000BFF34F8FBFF36F8F00F0C2FF18B1044958
:102180004FF080500860002080F3118810BD0000DF
:1021900004ED00E030B595B028216846FEF7DAF985
:1021A00014210AA8FEF7D6F918210FA8FEF7D2F9D4
:1021B00001210804CDE900100025029502240491B4
:1021C000CDE907404FF4E01009906846FFF7E2F9C7
:1021D00008B172B6FEE70AA90F2081E831004FF47A
:1021E0008060CDE90D0502210AA8FFF7D7F808B1F4
:1021F00072B6FEE74FF4004011900F940FA8FFF75E
:1022000057F8002801D072B6FEE715B030BD704710
:102210000148FFF7B6BB0000E0030020F0B50268FC
:10222000204C214D214E224F224B4FF0804CA0429A
:1022300009D0984207D0604505D0A84203D0B042EB
:1022400001D0B84204D122F0700E4A6842EA0E0270
:10225000A04209D0984207D0604505D0A84203D0DB
:10226000B04201D0B84203D122F44075CA682A4373
:102270004D6922F080022A4302608A68C2620A68BD
:102280008262A04201D0984201D109690163012113
:1022900041610169C90703D0016921F001010161B0
:1022A000F0BD0000002C0140000400400008004088
:1022B000000C00400034014010B5406A0021C18587
:1022C000C184FFF705FC10BD01680C3151E8002FF7
:1022D00022F4907241E80023002BF5D101681431FB
:1022E00051E8002F22F0010241E80023002BF5D134
:1022F000016B012909D101680C3151E8002F22F04E
:10230000100241E80023002BF5D1202180F8421073
:1023100000210163704708B590F84210222901D0CE
:10232000022008BD82684FF480539A4201D10169AE
:1023300021B1816A9A421BD04AB10AE00268816ADF
:102340005268C2F308020A80816A891C08E00269A7
:1023500072B10268526802F07F020A70816A491CF9
:102360008162C18D491E0904090CC18503D01BE09F
:1023700002685268F1E70168CA6822F02002CA6068
:102380000168CA6822F48072CA6001684A6922F052
:1023900001024A61202180F8421000214163026B52
:1023A000012A03D0FFF798FD002008BD01630168F2
:1023B0000C3151E8002F22F0100241E80023002BDD
:1023C000F5D101680A68D20602D50A684968009109
:1023D000818DFFF77CFBE7E770B504460068016973
:1023E000E26821F44051114301612169A06808436A
:1023F000616908432168CA6841F20C639A43024349
:10240000CA6020684169A26921F4407111434161A9
:102410001E492068884202D1FFF786F801E0FFF7E5
:1024200073F800EBC00101EB0012606864218000CA
:10243000B2FBF0F3B3FBF1F36FF018067343B2FB9A
:10244000F0F5B2FBF0F605EB8305322303EB05153F
:10245000B5FBF1F5B6FBF1F605F0F00505EB061559
:10246000B2FBF0F6B2FBF0F0B0FBF1F06FF0180247
:10247000504306EB800003EB0010B0FBF1F0216845
:1024800000F00F002844886070BD00000038014053
:1024900081628285C28500214164222180F8421038
:1024A000016921B10168CA6842F48072CA6001689A
:1024B0004A6942F001024A610068C16841F02001A6
:1024C000C1600020704700000148FFF703BB000017
:1024D00098030020FEE70907090E002804DB00F13D
:1024E000E02080F80014704700F00F0000F1E020B9
:1024F00080F8141D7047FEF71FFEFFF74BFEFFF735
:1025000053FDFFF715FDFFF78DFDFFF7A7FDFFF763
:10251000C1FDFFF735FD00F00EF8FEE70146002093
:10252000842900D0C81C704710B500B9012000F004
:102530008BFB002010BD10B500F0D2FB002010BDB9
:102540007FB50D4604464169B0F9080081B1A16923
:1025500071B1FFF7E3FFD4E905128DE80700D4E974
:1025600000102B46226900F092FD039004B070BD6C
:10257000FFF7D4FF03A9CDE90001208A2B4682B2E0
:10258000D4E9001000F056FD012801D00020EDE74D
:102590000398EBE72DE9F041184C0F460546E66835
:1025A0002068001D00F088FA38B9206890F82C10D7
:1025B00001208840216981432161681C07D137B11E
:1025C0002168BDE8F0410E48091D00F0B9BA206845
:1025D0003544B5424560216805D2A06BBDE8F041A5
:1025E000091D00F095BA606B091D00F091FAA06A10
:1025F000854200D2A562BDE8F081000014000020F1
:10260000040500202DE9F041054600F0A5FA2E4C06
:10261000A068401CA06020682C4F10B1606940B3D6
:102620002DE02560A068012829D1002606EB860050
:1026300007EB800000F05EFA761C072EF6D32348E5
:102640008C3000F057FA2148A03000F053FA1F48B0
:10265000B43000F04FFA1D48C83000F04BFA1B4868
:10266000DC3000F047FA19488C3060631430A06306
:1026700005E02068E96AC06A884200D82560606A7F
:10268000401C6062E96A0120226988401043206191
:1026900001EB810007EB8000291D00F051FA00F0EA
:1026A0007BFA606900280CD02068E96AC06A884219
:1026B00007D207494FF080500860BFF34F8FBFF338
:1026C0006F8FBDE8F0810000140000202804002076
:1026D00004ED00E02DE9F041856B17460446002625
:1026E000026C82B1C7B1E068FDF7BDFEE168206C05
:1026F000091AE1602268914202D2A168081AE060DA
:10270000022F16D017E02068A8B9A06800F05EFD7F
:1027100006460020A0600EE06068FDF7A4FE216C74
:10272000606808446060A168884204D320686060E3
:1027300001E005B16D1E6D1CA5633046BDE8F0815A
:1027400010B5044690F8510058B101280CD0022869
:102750000FD0502080F31188BFF34F8FBFF36F8FDE
:10276000FEE7206B00F02CFA2046BDE8104000F098
:1027700027BA10BD10484FF44061420706D0C01D73
:102780000D4920F00700411AC1F540610B4A0023B2
:102790000144C2E900030839183A21F00701116029
:1027A0004B600B600B1AC0E9001393604FF00040C0
:1027B0005360506170470000180500206800002039
:1027C000144E154CA6F1C8074FF08058DFF84C9016
:1027D00012E000BF00F0C0F9F068C568281D00F0E5
:1027E0006BF9A068401EA0606068401E606000F049
:1027F000D3F92846FFF7A4FF60680028EAD13868BB
:102800000128F9D9C9F80080BFF34F8FBFF36F8F4C
:10281000F2E70000F00400201400002004ED00E0C6
:102820002DE9F0479A46DDE9098481466FF00303FC
:10283000206B03EB82021044089E20F00707780704
:1028400007D0502080F31188BFF34F8FBFF36F8FF5
:10285000FEE7002561B1002023180A5C83F83420CC
:102860000A5C12B1401C1028F6D384F8435001E0F2
:1028700084F83450072E00D30626E662C4E91165B9
:10288000201D00F042F904F1180000F03EF9246127
:10289000C6F107006462A061E56484F850505246B6
:1028A0004946384600F0F6F82060B8F1000F01D034
:1028B000C8F80040BDE8F08730B5114900E0114686
:1028C0000A688242FBD34B685C18844203D140689B
:1028D00018444860084643681C18944209D1084CC3
:1028E000183C2468A24209D052681A4442600A681F
:1028F00012680260814200D0086030BD0460F9E7D0
:10290000680000200648416B096829B1416BC9681D
:10291000C9684968816270474FF0FF31FAE70000EB
:102920001400002008484068401C4FF0500080F31D
:10293000118804D0BFF34F8FBFF36F8FFEE7BFF353
:102940004F8FBFF36F8FFEE7700000202DE9F0413D
:10295000044600F001F994F9455004F1240609E019
:10296000606A48B1304600F07DFC08B100F09AF989
:102970006D1E6DB2002DF3DC4FF0FF3684F845601C
:1029800000F00AF900F0E8F894F9445004F1100757
:1029900009E0206948B1384600F064FC08B100F055
:1029A00081F96D1E6DB2002DF3DC84F84460BDE842
:1029B000F04100F0F1B800002DE9F0410546002794
:1029C00000F0C4F9324E306808B9FFF7D3FE7069E1
:1029D00005424ED1C5B3083568070ED005F0070093
:1029E000C0F108000544680707D0502080F3118823
:1029F000BFF34F8FBFF36F8FFEE72DB37068854233
:102A000037D82348183001460C6801E020460C46B0
:102A10006168A94202D221680029F7D131688C424D
:102A200027D007682168016060680837411B1029BA
:102A30000FD96019420708D0502080F31188BFF3E6
:102A40004F8FBFF36F8FFEE713E041606560FFF7C4
:102A500033FF61687068401A7060B268904200D2BB
:102A6000B060706901430020C4E90001F068401CB7
:102A7000F06000F031FC780707D0502080F3118817
:102A8000BFF34F8FBFF36F8FFEE73846BDE8F0818D
:102A90005000002010B5031F4FF080741C601B1FF6
:102AA00021F001011960191F024B0B6014394038E5
:102AB0000A6010BD25290008D0E9013201699A6039
:102AC000D0E901235A604A68824201D182684A6093
:102AD000002202610868401E086008687047000014
:102AE000034B036003F154000860802010607047BE
:102AF0008400002000F108014FF0FF32C0E901120C
:102B0000C1600161002101607047002101617047CF
:102B100030B50B685A1C02D000F1080202E00269CD
:102B200004E02246546825689D42FAD953684B60F8
:102B300099608A60516008610168491C016030BD7C
:102B400042684A6093688B6093685960916008613D
:102B50000168491C01607047502080F31188BFF361
:102B60004F8FBFF36F8F0A494868401C48600128A7
:102B70000CD10848006810F0FF0F07D0502080F3F8
:102B80001188BFF34F8FBFF36F8FFEE770470000D0
:102B90007000002004ED00E00849486828B1401E9C
:102BA000486001D180F311887047502080F311886C
:102BB000BFF34F8FBFF36F8FFEE700007000002060
:102BC00070B500282AD0164DA0F108046068696924
:102BD000084207D1502080F31188BFF34F8FBFF315
:102BE0006F8FFEE722683AB1502080F31188BFF35F
:102BF0004F8FBFF36F8FFEE78843606000F0A6F849
:102C000060686968084468602046FFF755FE2869D7
:102C1000401C2861BDE8704000F05EBB70BD000044
:102C2000500000204FF0E020002101618161054942
:102C30004FF47A720968B1FBF2F1491E4161072134
:102C4000016170471000002010B5020014D00F4839
:102C5000006B38B1502080F31188BFF34F8FBFF362
:102C60006F8FFEE700F072F800211046FFF792FC2C
:102C700000F032FB002807D105494FF08050086072
:102C8000BFF34F8FBFF36F8F10BD00001400002003
:102C900004ED00E002490A6A0260C96841607047B9
:102CA0001400002001490120C86170471400002071
:102CB00010B50C4650B1094909681831FFF728FFD3
:102CC0002046BDE810400121FFF764BC502080F38E
:102CD0001188BFF34F8FBFF36F8FFEE71400002002
:102CE00010B586B00024039405AA04A903A804948F
:102CF000FFF7F6FEDDE903010094CDE901100023A2
:102D00000EA11048059A00F0C2F90F490028C862C8
:102D100011D0502080F31188BFF34F8FBFF36F8F16
:102D20004FF0FF30886201204861CC6006B0BDE8FA
:102D3000104000F041B806B010BD000049444C45B9
:102D400000000000C1270008140000200248016BA9
:102D5000491C016370470000140000201448016BF7
:102D600011B10121C16170470021C1610169B1FA4E
:102D700081F1C1F11F0101EB81020E4951F82230AE
:102D80006BB101EB820101F108034A6852684A60A5
:102D90009A4201D152684A60D16801607047502060
:102DA00080F31188BFF34F8FBFF36F8FFEE70000F2
:102DB00014000020280400201CB526490878019042
:102DC000FF20087008788DF800009DF800009DF83D
:102DD000002000F0F000904207D0502080F31188CE
:102DE000BFF34F8FBFF36F8FFEE79DF800001A4CC3
:102DF00000F0500020700720A06005E09DF8002042
:102E000052008DF80020401E9DF800201206F5D4D7
:102E1000A060032807D0502080F31188BFF34F8FA4
:102E2000BFF36F8FFEE74FF44070A0600198087009
:102E30000A48016841F470010160016841F0704185
:102E40000160FFF7EFFE00206060FDF7D9F9002078
:102E50001CBD000000E400E07000002020ED00E058
:102E60002DE9FF4782B01D468A464FF00008040056
:102E700003D0BAF1000F08D011E0502080F3118880
:102E8000BFF34F8FBFF36F8FFEE7206C38B1502038
:102E900080F31188BFF34F8FBFF36F8FFEE7022DD2
:102EA0000AD1E06B012807D0502080F31188BFF3CE
:102EB0004F8FBFF36F8FFEE700F014F93F4F4FF0D5
:102EC00000094FF0805648B9049838B1502080F37B
:102ED0001188BFF34F8FBFF36F8FFEE7FFF73CFE04
:102EE000A06BE16B884207D3022D05D00498D0B1C6
:102EF000B8F1000F1AD01EE02A4651462046FFF7CF
:102F0000E9FB616A19B104F1240000F0ABF920B1CA
:102F10003E60BFF34F8FBFF36F8FFFF73DFE012081
:102F200006B0BDE8F087FFF737FE22E06846FFF7FE
:102F3000B1FE4FF00108FFF72FFEFFF707FFFFF785
:102F40000BFE94F94400401C01D184F8449094F99C
:102F50004500401C01D184F84590FFF71DFE04A9EF
:102F6000684600F02DF830B12046FFF7EFFC00F086
:102F7000B3F90020D4E7FFF7EFFDA06BE16B8842C7
:102F800013D1FFF709FE04F110000499FFF790FE3A
:102F90002046FFF7DBFC00F09FF900289ED13E6041
:102FA000BFF34F8FBFF36F8F98E7FFF7F5FD204614
:102FB000FFF7CCFC00F090F990E7000004ED00E092
:102FC0002DE9F0410C46050011D0C4B1FFF7C4FD56
:102FD000174BDA686E682068911B471C17D02F6862
:102FE0001B6A9F4219D0964217D8012410E0502046
:102FF00080F31188BFF34F8FBFF36F8FFEE7502030
:1030000080F31188BFF34F8FBFF36F8FFEE700246B
:10301000FFF7C2FD2046BDE8F081884205D9401A7D
:1030200020602846FFF736FEF1E700202060DCE74D
:10303000140000202DE9FF5F8346DDE90E879946E5
:1030400016468A469000FFF7B7FC05001CD05420B6
:10305000FFF7B2FC040014D00020256384F851006F
:10306000CDE90240CDE900874B46324651465846ED
:10307000FFF7D6FB2046FFF7C5FA012004B0BDE8F4
:10308000F09F2846FFF79CFD4FF0FF30F6E7F0B5C4
:1030900085B0DDE90B640A9DA6B1DCB15427009729
:1030A0002663022684F85160002604AFCDE902466B
:1030B000CDE90057FFF7B4FB2046FFF7A3FA0498C9
:1030C00005B0F0BD502080F31188BFF34F8FBFF3E0
:1030D0006F8FFEE7502080F31188BFF34F8FBFF34F
:1030E0006F8FFEE70548416919B1006B18B10020E8
:1030F0007047012070470220704700001400002034
:103100002DE9F0412F4C0026206B28B1A069401C0E
:10311000A0613046BDE8F081E5686D1CE56013D123
:10312000606B006838B1502080F31188BFF34F8F77
:10313000BFF36F8FFEE7606BA16B6163A063206AD2
:10314000401C2062FFF7DEFBA06ADFF87C8085422E
:1031500009D3606B0068A0B1606BC068C76878680D
:10316000854211D2A0622068C06A00EB800158F845
:103170002100012800D90126E0690028C9D00126D4
:10318000C7E74FF0FF30EDE7381DFFF795FCB86A51
:1031900018B107F11800FFF78FFCF96A01202269C6
:1031A00088401043206101EB810108EB8100391D4B
:1031B000FFF7C6FCF86A2168C96A8842C9D30126AC
:1031C000C7E70000140000202804002070B50400A8
:1031D0004FF0000140D0214D2868844207D0502094
:1031E00080F31188BFF34F8FBFF36F8FFEE7A06CA2
:1031F00038B1401EA064636CE26A9A422CD040B1A0
:103200002AE0502080F31188BFF34F8FBFF36F8FF8
:10321000FEE7201DFFF750FC114A012150B9E06A7A
:1032200000EB800352F8233023B92B6901FA00F038
:1032300083432B61606CE062C0F10700A061E06A2B
:103240002B6981401943296100EB800002EB80006B
:10325000211DFFF775FC0121084670BD14000020F8
:10326000280400202DE9F041C068C468ACB104F125
:1032700018000746FFF720FC154D286B0126A0B16A
:1032800039461448FFF75CFCE06A2968C96A88423D
:103290001CD90120EE61BDE8F081502080F3118837
:1032A000BFF34F8FBFF36F8FFEE7201DFFF704FCC6
:1032B000E16A2A6906FA01F01043286101EB8100F6
:1032C0000449B43901EB8000211DDBE70020E2E76F
:1032D00014000020DC0400202DE9F0472C4D0024D0
:1032E0002746286B38B1FFF737FC286B401E286350
:1032F000286B40B146E0502080F31188BFF34F8F18
:10330000BFF36F8FFEE7A968224E0120D1B3A6F16B
:10331000B40980463068E8B1F068C46804F1180068
:10332000FFF7CAFB201DFFF7C7FBE06A2A6908FA0E
:1033300000F11143296100EB800109EB8100211D9F
:10334000FFF7FEFBE06A2968C96A8842E2D3C5F844
:103350001C80DFE70CB1FFF7D5FAAC6944B14646F3
:10336000FFF7CEFE00B1EE61641EF9D10020A86126
:10337000E86938B10849012738070860BFF34F8F63
:10338000BFF36F8FFFF708FC3846BDE8F0870000F9
:1033900014000020DC04002004ED00E010B500293A
:1033A0000AD00878002807D005487844FDF736FB96
:1033B000002801D0002010BD0248784410BD000054
:1033C000920000008A00000010340008612100080B
:1033D000000000000000000080000000000000006D
:1033E00000000000010202030405060708090A0B99
:1033F0000C0D0E0F10100000000000000000010274
:10340000030406070809000000000102030400008D
:1034100064656661756C745461736B004C350008AB
:1034200000000020840000006C010008D035000876
:1034300084000020741700008801000810010000BB
:1034400043000000F8FFFFFF004040404040404084
:103450004040414141414140404040404040404067
:10346000404040404040404040050202020202020B
:10347000020202020202020202202020202020205A
:10348000202020020202020202029090909090906E
:10349000101010101010101010101010101010102C
:1034A00010101010020202020202888888888888A0
:1034B000080808080808080808080808080808088C
:1034C0000808080802020202400000000000000094
:1034D00000000000000000000000000000000000EC
:1034E00000000000000000000000000000000000DC
:1034F00000000000000000000000000000000000CC
:1035000000000000000000000000000000000000BB
:1035100000000000000000000000000000000000AB
:10352000000000000000000000000000000000009B
:10353000000000000000000000000000000000008B
:10354000000000000000000000000000000000007B
:1035500001000000100000000000000000127A00CE
:10356000000000000000000000000000000000005B
:10357000000000000000000000000000000000004B
:10358000000000000000000000000000000000003B
:10359000000000000000000000000000000000002B
:1035A000000000000000000000000000000000001B
:1035B000000000000000000000000000000000000B
:1035C000AAAAAAAA00000000000000000000000053
:0400000508000131BD
:00000001FF
